:400000000080002011000000750800007508000080B500AF024A034B1B68136000F034FCBC760040FA46004001000000002000400100000000200140010000000048004043
:400040000100000000480140010000000100000008000223000008760800032300001076080004230000287608000523000030760500062300002070050007230000307065
:4000800005000823000060700500FE230000707030000A22000040511000FE220000C05180030C220000000080010D220000000480030E220000000800040F220000000CAB
:4000C0008001102200000018800111220000001A0001122200000040800013220000004280001422000000478000FE220000004D07001623000000520700172300000852E4
:400100000700182300001052070019230000185207001A23000078522000FE230000706580001C230000000680001D230000800680001E230000001480001F230000801414
:400140008000202300000016800021230000801610002223000010501000232300000050800024230000804D800025230000004C800026230000804C800027230000804723
:400180008000282300000046800029230000804680002A230000004580002B230000804580002C230000004480002D230000804480002E230000801B80002F2300000015FD
:4001C000800030230000801580003123000080198000322300000017800033230000801780003423000000078000352300008007800036230000800B8000372300008005D1
:400200008000382300008003800039230000004980003A230000804980003B230000004880003C230000804880003D230000004380003E230000804380003F23000080425D
:4002400080004023000000418000FE230000804110B5054C237833B9044B13B10448AFF300800123237010BD5081FF1F00000000101E0000084B10B51BB108490848AFF312
:4002800000800848036803B910BD074B002BFBD0BDE81040184700BF000000005481FF1F101E0000C880FF1F0000000080B582B000AF0023FB7100F0D1FB00F01DFF00F03B
:4002C00019FD00F00DF8012000F074FBFB790133FB71FB79102BF9D10023FB71F6E700BF80B582B000AF41F6FF734FF480420121022000F0CDFC0346FB7101F00DFC034602
:400300003B7138793A790223202101F033FC3B790A4A92B244F61061184601F06BFC3A79FB791146184601F089FBFB790121184601F0D0FA00BF0837BD4680BD8081FF1F1D
:4003400080B582B000AF786039603A680021786801F055FD00BF0837BD4680BD80B584B000AFF860B9607A607A68B968F86801F03BFD00BF1037BD4680BD00BF80B483B077
:4003800000AF0346FB71FEE780B483B000AF434B00221A60424B10221A70424B01221A70414B00221A70414B4FF400721A80404B01221A703F4B03221A703F4B3F4A92B256
:4003C0001A803F4B47F608021A803E4B00221A803D4B4FF480421A803C4B09221A703C4B0B221A703B4B15221A703B4B1B221A70BFF35F8F394B01221A70BFF35F8F00BF4E
:400400002A4B1B889BB2002BFAD100237B600DE07B68DA00324B13441946324A7B6852F823309BB20B807B6801337B607B683F2BEED9BFF35F8F294B01221A70BFF35F8F4B
:4004400000BF294B1B78DBB203F00103002BF8D100BF264B1B78DBB203F00103002BF8D100BF234B1B78DBB203F00103002BF8D100BF204B1B78DBB203F00103002BF8D196
:4004800000BF1D4B1B78DBB203F00103002BF8D100BF0C37BD4680BC704700BF7081FF1F0076004010700040197000400078004002780040037800400478004050000000CC
:4004C00006780040047600400676004029700040397000406970004079700040147000400C780040201E0000187000402870004038700040687000407870004080B582B0CF
:4005000000AF3C4B00221A803B4B50221A7004223A493B48FFF722FF3A4B02221A704FF0402308221A70384B03221A70374B384A1278D2B21A70374B40F221221A80364B9B
:4005400041F251221A800023FB7019237B6013E0FB785B00DAB2314B1B78DBB203F00103DBB21343DBB203F00303FB70782001F0FFFB7B68013B7B607B68002B02D0FB7812
:40058000032BE5D17B68002B02D10320FFF7F6FE234B4FF480721A80214B07221A70214B00221A70204B48221A701D4B00221A701E4B02221A701E4B04221A701D4A1D4B83
:4005C0001B78DBB243F00103DBB213701A4A1A4B1B78DBB243F00103DBB21370174A174B1B78DBB263F07F03DBB2137000BF0837BD4680BD8040004082400040941200486E
:40060000004100400043004000420040A146004008010049224200402042004025420040044000400640004008400040014000400B400040A2430040A1430040A0430040C4
:4006400080B483B000AF154B1B78FB71144AFB7903F00703DBB21370124AFB791B09DBB21370114BFF221A70104B80221A70104B30221A700F4B37221A700F4B30221A70EA
:400680000E4BDB221A700E4B70221A700D4B44221A7000BF0C37BD4680BC7047CF0100496E5800406F5800400D5100402D5100403D510040FD5100409C5A0040005B0040F6
:4006C000585B00407658004080B483B000AF0346FB71FB79012B0ED8FB79094A52F82330FA79074951F822201178FA790548825C0A43D2B21A7000BF0C37BD4680BC70477C
:40070000141E00001C1E000080B483B000AF0346FB71FB79012B10D8FB790A4A52F82330FA79084951F822201178FA790648825CD243D2B20A40D2B21A7000BF0C37BD4628
:4007400080BC7047141E00001C1E000080B500AF72B6334B61221A70FFF7D0FE304B81221A70304A2F4B1B78DBB243F00403DBB21370FFF709FE2C4B0A221A7004212B48F7
:40078000FFF7DEFD2A4A2A4B1B78DBB243F00203DBB21370274A274B1B78DBB243F00203DBB21370244A244B1B78DBB243F04003DBB21370214A214B1B78DBB243F010030C
:4007C000DBB2137008221E491E48FFF7C7FD08221D491E48FFF7C2FD0A221D491D48FFF7BDFD08221C491D48FFF7B8FD08221C491C48FFF7B3FD1C4A1B4B1B78DBB243F08F
:400800000803DBB21370194B01221A70FFF718FF0E2209491648FFF7A1FD00BF80BD00BF00480040E846004083580040507600400350014013500140A0430040C243004099
:40084000681200480251004070120048F2510040781200481051004084120048225100408C120048325100402243004004000840B043004080B500AF01F08AFA03461B68E0
:400880000C2B00D1FEE7FEE780B586B000AF224B7B61224B3B61204B7B6135E03B691B68FB603B695B68BB603B699B683B6000237B600CE0FB681A68BB681A60BB68043392
:4008C000BB60FB680433FB607B6804337B607A683B689A42EED13B69DB683B6000237B6008E0BB6800221A60BB680433BB607B6804337B607A683B689A42F2D13B69103337
:400900003B617B69013B7B617B69002BC6D101F045FAFFF7CBFCFEE701000000481F000080B582B000AF194B194A1A60194A194B1B6843F40073136000237B600FE07B68B1
:40094000032B04D8144A7B6852F8233000E0134B13497A6841F822307B6801337B607B682F2BECD90F4B1B78DAB20F4B1A700F4B0B4A1A60FFF7EAFE00F07EFF0C4B00224A
:400980001A6000BF0837BD4680BD00BF0CED00E00004FA0514ED00E000000000750800000080FF1FBC760040C480FF1F08ED00E0C080FF1F80B483B000AF0346FB71044AC8
:4009C000FB79137000BF0C37BD4680BC704700BF7465004080B500AF282001F045F9032000F024F9052001F03FF9032000F01EF90F2001F039F9032000F018F9012001F0A5
:400A000033F9022000F012F9052001F02DF9062000F036F80E2000F033F82C2000F030F8082000F02DF8012000F02AF80C2000F027F8032000F024F8052001F015F900BF83
:400A400080BD00BF80B500AF0C2000F019F8024B01221A7000BF80BD7481FF1F80B500AF064B1B78002B04D1FFF7B4FF034B01221A70FFF7E7FF00BF80BD00BF7581FF1F49
:400A800080B584B000AF0346FB7100F013F8FB791B09FB73FB7B184600F0C8F8FB7903F00F03FB73FB7B184600F0C0F800BF1037BD4680BD80B582B000AF4FF4CA737B60CA
:400AC000554A554B1B78DBB223F07F03DBB21370524B1B78DBB223F00F03FB704F4AFB7843F00F03DBB213704D4B1B78DBB223F00F03FB704A4AFB7813704A4B1B78DBB2BD
:400B000023F00F03FB70474AFB781370424A424B1B78DBB223F02003DBB213703E4A3E4B1B78DBB243F04003DBB21370002001F0BDF8394A384B1B78DBB243F01003DBB2A9
:400B40001370012001F0B2F8374B1B78FB70324A314B1B78DBB223F01003DBB21370002001F0A4F8FB7803F00803FB702A4A2A4B1B78DBB243F01003DBB21370012001F06E
:400B800095F8254A244B1B78DBB223F01003DBB21370FB78002B02D10A2001F087F87B68013B7B60FB78002B02D07B68002BBDD1194A194B1B78DBB223F04003DBB2137016
:400BC000154A154B1B78DBB223F07F03DBB21370124A124B1B78DBB223F00F03DBB213700F4B1B78DBB223F00F03FB700C4AFB7843F00F03DBB213700A4B1B78DBB223F0B3
:400C00000F03FB70074AFB7843F00F03DBB2137000BF0837BD4680BD205100402251004023510040245100402151004080B582B000AF0346FB71154A144B1B78DBB223F0A5
:400C40006003DBB21370114A104B1B78DBB223F00F03DBB213700D490C4B1B78DAB2FB791343DBB243F01003DBB20B70012001F01DF8064A054B1B78DBB223F01003DBB2EB
:400C8000137000BF0837BD4680BD00BF2051004090B585B002AF0446084611461A462346FB710346BB710B46BB8013467B80104B0A221A700E4B1878BA79F9790023019309
:400CC00000230093002300F0D7FE094B1B787A88B988184600F076FE054B1B780221184600F03EFE024B1B7818460C37BD4690BDCC80FF1F80B500AF064B1B78002B04D1D7
:400D000000F00AF8034B01221A7000F045F800BF80BD00BF7681FF1F80B582B000AF1B4B1B78DBB223F03F03FB71184AFB7943F00A03DBB21370164A154B1B78DBB243F033
:400D40000103DBB21370632000F036F8632000F051F8312000F05EF8002000F06BF801F00FF80346BB710B4A0A4B1B78DBB243F01003DBB21370BB79184601F005F800F0FB
:400D80002BF800BF0837BD4680BD00BF77650040976400409765004080B400AF054A054B1B78DBB263F07F03DBB2137000BFBD4680BC70477765004080B483B000AF0346C9
:400DC000FB71044AFB79137000BF0C37BD4680BC704700BF0764004080B500AF01E000F045F800F037F8034603F01003002BF6D100BF80BD80B483B000AF0346FB71044A79
:400E0000FB79137000BF0C37BD4680BC704700BF4764004080B483B000AF0346FB71044AFB79137000BF0C37BD4680BC704700BF2764004080B483B000AF0346FB71044A6E
:400E4000FB79137000BF0C37BD4680BC704700BF8765004080B400AF034B1B78DBB21846BD4680BC704700BF6765004080B400AF034B1B78DBB21846BD4680BC704700BFC4
:400E80005764004080B582B002AF324B01221A70314B00221A70102000F0E0FB102000F0C3FC07211D2000F03DFF2C4B04221A702B4B00221A702B4B00221A702A4A2A4B0E
:400EC0001B78DBB243F01803DBB21370274B00221A70274B00221A70264B00221A70264B0A221A70254B00221A70254B00221A70244B5B221A70244B5E221A70234B00223D
:400F00001A70234B14221A700123009311234FF4004248F6F051022000F0B8F91D4A0D4B1B78DBB2013B1C499B000B449B7813701A4A084B1B78DBB2013B174931F8233058
:400F40001380044B1B78DBB2184600F0EDF800BFBD4680BDCD80FF1F7881FF1F96580040975800409E580040075B004093580040885B0040895B00408058004081580040E3
:400F80008358004088580040895800408D580040014E00400E4E00407C81FF1F0C4E004080B582B000AF00F0EBFE0346FB71444B1B78BB71434A434B1B78DBB243F001036C
:400FC000DBB213703F4A3F4B1B78DBB243F01003DBB213703C4A3C4B1B78DBB243F00103DBB21370384A384B1B78DBB243F01003DBB21370354A354B1B78DBB243F0020312
:40100000DBB21370324A324B1B78DBB243F00203DBB213702F4A2F4B1B78DBB243F00303DBB21370032000F041FE284A274B1B78DBB223F00203DBB21370254A244B1B78F4
:40104000DBB223F00203DBB21370234A224B1B78DBB243F00603DBB21370204B7A221A701F4A1F4B1B78DBB243F00103DBB213701C4A1C4B1B78DBB243F00103DBB2137076
:40108000194A194B1B78DBB243F00103DBB21370164A164B1B78DBB243F00103DBB21370134B4FF000521A60124B4FF000521A60FB79184600F068FE00BF0837BD4680BDA3
:4010C000CD80FF1FAA430040BA430040F8460040F9460040915800407758004082580040A1430040B1430040A2430040B243004080E200E000E100E080B500AF084B1B784D
:40110000002B09D1074B1B78DBB2002B01D1FFF7B9FE034B01221A70FFF742FF00BF80BD7A81FF1F7B81FF1F80B582B000AF0346FB71384B00221A70FB79012B66D1364BDB
:401140007A221A70354B04221A70354B07221A70344B03221A70344B00221A70334B3F221A70334B00221A70324B00221A70324B00221A70314B01221A70314B50221A7007
:40118000304B0A221A70304B2C221A702F4B00221A702F4B44221A702E4B48221A702E4B01221A702D4B02221A702D4B12221A702C4B28221A702C4BEB221A70522000F071
:4011C0001DF92A4B58221A70294B00221A70294B05221A70284B02221A70284B00221A70274B00221A70002000F066F9254B46F266621A600121022000F072F901210A2079
:4012000000F054FA20491D2000F064FD00BF0837BD4680BD7981FF1F004E0040024E0040034E0040044E0040054E0040064E0040084E0040094E00400A4E0040144E004054
:40124000845800408558004086580040875800408A5800408B5800408C5800408E5800408F580040905800409158004094580040955800409A5800409B5800409C580040FF
:401280009D580040A481FF1F7914000090B587B000AF0446084611461A462346FB710346BB800B467B801346BB7197F82830002B00F08B8097F82830012B00F28680FB79F9
:4012C000013B092B4AD801A252F823F0F51200005D1300005D130000F51200005D1300005D1300000F130000291300005D13000043130000BB790F2B04D9374B1B78DBB27D
:40130000FB752EE0354B1B78DBB2FB7529E0BB790F2B04D9324B1B78DBB2FB7521E0314B1B78DBB2FB751CE0BB790F2B04D92E4B1B78DBB2FB7514E02C4B1B78DBB2FB7566
:401340000FE0BB790F2B04D9294B1B78DBB2FB7507E0284B1B78DBB2FB7502E00023FB7500BFBA8897F917305B0113443B617B883A6902FB03F3FB60FB68DB0BBB82BB79FB
:401380000D2B12D8BA8ABB79C3F10E0342FA03F3BB8297F82830013BBA790132D1B2164A9B0013440A469A7007E097F82830013B114A9B0013440F229A7097F82830013BF2
:4013C0000D49BA8A21F8232002E0002000F040FC00BF1C37BD4690BD180100491C010049190100491D0100491A0100491E0100491B0100491F0100497C81FF1F80B584B0B7
:4014000000AF0346FB7100F0BBFC0346FB73174A164B1B78DBB243F00303DBB21370144A134B1B78DBB243F00303DBB21370114AFB791370032000F039FC0C4A0B4B1B78C1
:40144000DBB223F00303DBB21370094A084B1B78DBB223F00303DBB21370FB7B184600F093FC00BF1037BD4680BD00BFF8460040F94600409258004080B400AF00BFBD46A3
:4014800080BC704780B582B000AF0023FB7106E0FB791846FFF738F9FB790133FB71FB79012BF5D9034BFF221A7000BF0837BD4680BD00BFCE80FF1F80B582B000AF034672
:4014C000FB71FFF7DFFFFB791846FFF7FDF8034AFB79137000BF0837BD4680BDCE80FF1F80B584B000AF03460A46FB8013467B7100F0CEF80346FB7300F0A4F80346BB8112
:40150000FA88BB899A4200F08880464B1B78DBB203F00103FB72FB7B002B20D1BB89002B02D0FB88002B1AD1BB89002B0BD13E4AFB8813803D4A3D4B1B78DBB223F0400322
:40154000DBB2137069E0394A384B1B78DBB243F04003DBB21370344AFB8813805DE0FB7A002B33D0324B00221A70324B01221A70314B00221A70314A304B1B78DBB203F06E
:401580007F03DBB21370294B1B78DBB203F00803002B02D0FB88002B18D1294ABB891380234B07221A7000BF214B1B78DBB203F00103002BF8D11B4A1A4B1B78DBB223F0D5
:4015C0000103DBB213701A4B00221A70154B1B78DBB203F00103002B13D0194AFB881380134A7B79002B01D0032300E00123137000BF0F4B1B78DBB203F00103002BF8D1AA
:401600000BE0094AFB8813800649064B1B78DAB2FB7A1343DBB20B70FFE700BF1037BD4680BD00BFA243004080400040824000400140004010400040144000400840004085
:401640000240004080B400AF034B1B889BB21846BD4680BC704700BF8040004080B483B000AF0346FB710949084B1B78DBB25AB297F9073023F007035BB213435BB2DBB237
:401680000B7000BF0C37BD4680BC70478240004080B400AF044B1B78DBB203F00703DBB21846BD4680BC70478240004080B584B000AF03460A46FB8013467B7100F0CEF85C
:4016C0000346FB7300F0A4F80346BB81FA88BB899A4200F08880464B1B78DBB203F00103FB72FB7B002B20D1BB89002B02D0FB88002B1AD1BB89002B0BD13E4AFB8813801E
:401700003D4A3D4B1B78DBB223F04003DBB2137069E0394A384B1B78DBB243F04003DBB21370344AFB8813805DE0FB7A002B33D0324B00221A70324B01221A70314B0022BA
:401740001A70314A304B1B78DBB203F07F03DBB21370294B1B78DBB203F00803002B02D0FB88002B18D1294ABB891380234B07221A7000BF214B1B78DBB203F00103002B46
:40178000F8D11B4A1A4B1B78DBB223F00103DBB213701A4B00221A70154B1B78DBB203F00103002B13D0194AFB881380134A7B79002B01D0032300E00123137000BF0F4B2D
:4017C0001B78DBB203F00103002BF8D10BE0094AFB8813800649064B1B78DAB2FB7A1343DBB20B70FFE700BF1037BD4680BD00BFA143004000410040024100400140004064
:401800001440004010400040084000400240004080B400AF034B1B889BB21846BD4680BC704700BF0041004080B483B000AF0346FB710949084B1B78DBB25AB297F9073062
:4018400023F007035BB213435BB2DBB20B7000BF0C37BD4680BC70470241004080B400AF044B1B78DBB203F00703DBB21846BD4680BC70470241004080B483B000AF134B31
:401880007F221A70124B80221A707F23FB710CE0FB79DB0003F1804303F5F043FA79013AD2B21A70FB79013BFB71FB79002BEFD1FB79DB0003F1804303F5F04300221A7035
:4018C00000BF0C37BD4680BC704700BFD180FF1FD080FF1F80B485B000AF03460A46FB711346BB710123FB60FB79172B2FD8BB79002B0ED0FB791A01184B1344FA7911016B
:40190000164A0A441278D2B242F02002D2B21A700DE0FB791A01114B1344FA7911010F4A0A441278D2B222F02002D2B21A70FB791A010A4B1344FA791101084A0A441278F4
:40194000D2B242F00102D2B21A700023FB60FB6818461437BD4680BC704700BF1070004080B485B000AF03460A46FB711346BB710123FB60FB79172B1BD8FB791A01104BED
:4019800013441B78DBB223F00E03FB72FB791A010B4B1344BA795200D2B252B202F00E0251B297F90B200A4352B2D2B21A700023FB60FB6818461437BD4680BC704700BF78
:4019C0001070004080B485B000AF0346FB710B46BB8013467B800123FB60BB8841F6FF72934202D14FF40053BB807B8841F6FF72934202D14FF400537B80FB79172B17D80E
:401A0000FB79DB0003F1804303F5EC430433BB60BB68BA881A80FB79DB0003F1804303F5EC430633BB60BB687A881A800023FB60FB6818461437BD4680BC704780B485B0FF
:401A400000AF03460A46FB711346BB710123FB60FB79172B07D8FB791A01064B1344BA795A720023FB60FB6818461437BD4680BC704700BF1070004090B484B000AF044673
:401A8000084611461A462346FB710346BB710B467B7113463B710123FB60FB79172B34D8FB79DB0003F1804303F5EC43BA7902F07F02D1B27A79D201D2B20A43D2B21A7059
:401AC000FB79DB0003F1804303F5EC433A7E1201D1B23A7902F00F02D2B20A43D2B25A70FB79DB0003F1804303F5EC433A7F02F00F02D2B29A70FB79DB0003F1804303F521
:401B0000EC430022DA700023FB60FB6818461037BD4690BC704700BF80B582B000AFFF23FB7100F02DF90346BB71104B1B78182B12D90F4B1B78FB710C4B1B78013BDAB269
:401B40000A4B1A70FB79DB0003F1804303F5F0431B78DAB2064B1A70BB79184600F014F9FB7918460837BD4680BD00BFD080FF1FD180FF1F90B484B000AF044608461146C9
:401B80001A462346FB710346BB800B46BB711346FB700123FB6097F90730002B23DBBB8823F47F6323F00F039BB2002B1BD1FB79DB0003F1804303F5F043BB60BB68BA8846
:401BC0001A80FB79DB0003F1804303F5F043BA799A70FB79DB0003F1804303F5F043FA78DA700023FB60FB6818461037BD4690BC704700BF80B485B000AF0346FB710B4687
:401C0000BB8013467B800123FB6097F90730002B17DBFB79DB0003F1804303F5F0430433BB60BB68BA881A80FB79DB0003F1804303F5F0430633BB60BB687A881A800023C9
:401C4000FB60FB6818461437BD4680BC704700BF80B483B000AF0346FB7101BE00BF0C37BD4680BC704700BF80B582B000AF786008E00C4B1B68184600F07AF87B68A3F51C
:401C800000437B607B68B3F5004FF2D8064B1B687A6802FB03F3184600F06AF800BF0837BD4680BDE480FF1FDC80FF1F80B582B000AF0346FB80FB88054A127802FB03F3A6
:401CC000184600F055F800BF0837BD4680BD00BFE080FF1F80B584B000AF03463960FB710F4B1B68FB60FB791F2B02D90020FFF7AFFFFB7903F01F0310339B00FA681344B3
:401D00001B68BB60FB7903F01F0310339B00FA6813443A681A60BB6818461037BD4680BD08ED00E080B582B000AF03460A46FB711346BB71BB79072B02D90020FFF788FF6E
:401D4000FB791F2B02D90020FFF782FFFB7903F01F0303F1604303F56443BA795201D2B21A7000BF0837BD4680BD00BF000000000230800803D000BF01380046FCD1704794
:401D8000EFF3108072B6704780F31088704700BF014B1868704700BF4881FF1F0E4B70B51E460E4C0025E41AA410A54204D056F8253098470135F8E700F0B4F8084B094C7F
:401DC0001E46E41AA4100025A54204D056F8253098470135F8E770BD301F0000301F0000301F0000381F000010B5431E0A44914204D011F8014B03F8014FF8E710BD034635
:401E00000244934202D003F8011BFAE77047000000000000035B00402443004040000000280000003000000038000000400000004800000048000000480000004800000091
:401E40007081FF1F7081FF1F7081FF1F7081FF1F7081FF1F7081FF1F7081FF1F7081FF1F7081FF1F7081FF1F7081FF1F7081FF1F000000480800004810000048180000485E
:401E8000200000482803004828000048A800004828010048A801004828020048A8020048480300485803004868030048E803004868040048E804004868050048E805004833
:401EC00068060048E806004868070048E807004868080048E808004868090048E8090048680A0048E80A0048680B0048E80B0048680C0048E80C0048680D0048E80D00484A
:401F0000680E0048E80E0048680F0048E80F004868100048E810004868110048E811004843000000F8B500BFF8BC08BC9E4670477502000021090000F8B500BFF8BC08BC5E
:401F40009E46704751020000581F0000C880FF1F880000005800000000000000FF01FF00807F000000040000408AF701E880000021000000000074400000000000000000B5
:401F8000000000000000000000000000000000000000000000000000201F0000000000000000000000000000000000000000000000000000000000000000000000000000E2
:401FC000000000000000000000000000000000000000000000000000E880FF1F0000000000000000000000000000000000000000000000000000000000000000000000005B
:4020000000000000000000000000000000000000000000000000000000000000000000000000000000000000000000000000000000000000000000000000000000000000A0
:402040000000000000000000000000000000000000000000000000000000000000000000000000000000000000000000000000000000000000000000000000000000000060
:402080000000000000000000000000000000000000000000000000000000000000000000000000000000000000000000000000000000000000000000000000000000000020
:4020C00000000000000000000000000000000000000000000000000000000000000000000000000000000000000000000000000000000000000000000000000000000000E0
:020000040003F7
:0200000480007A
:40000000566C0000000000000000000004000000008000000000000063A500000000000024310000000000000001000000010000000000000000010000000000000000001A
:40004000000000010000000100000000000000000000000100000100000000000000010100000000000040000000000000000000000000000000000000000000000000003A
:4000800004040000900000010000000000000000000000000000000000000000000000000000000000000000000000000409090000000D02000900000D0000000801050856
:4000C000000000000400090402010008020000060000000900000000040102080800010608000000000000002006000000D001021EFFFFFF00A000041800000000000000DD
:4001000004040400990900014000C0004040C000C000C000C000C00000000000000000000000000000000000080011000802110C0000190010000900000004011804010A32
:40014000000000000000000E02000000000000000000000E00080206100401020608080100000000000000000000000000000000000000000000000000000000000008001B
:400180000404000499900001000000000000000000000000000000000000000000000000000000000000000000000000000C00030000000F000000000000000000000000EB
:4001C000000D00020003000C0000000000000000000000000007000800020004000100080000000000000000000000000000000000000000000000000000000000000000C3
:400200000004000090000001000000000000000000000000000000000000000000000000000000000000000001000200400080008000400020001002000000000000000074
:400240000800040404000801020001001000200000000000000000000002FF04000100000800300000000400000000000000000000000000000000000000000000000000EC
:400280000B04000099000001000000000000000000000000000000000000000000000000000000000000000000001000000001011800000000000800000038000300000820
:4002C0000000200708000003000002000000040820000000000000000301000838020404000000A20000000400000000000000000000000000000000000080000500000025
:40030000040B000499900001000000000000000000000000000000000000000000000000000000000000000000000000000000000000000000000000000000000000000D73
:4003400000000000000000000001000000000000000000010000000000010000000000000000000100000000000000000008000000000040000000000000000000000040F1
:400380000000000000080000000000000000000000000000000000000000000000000000000000000000000000000000000000000000000000000000000000000000000035
:4003C00000000000000000000400000000000000000000000000000000000000000000000000000000000000000000000000000000000000000000000000000000000000F9
:4004000000000000000000000000000000000000000000000000000000000000000000000000000000000000000000000000000000000000000000000000000000000000BC
:400440000000000000000000000000000000000000000000000000000000004000080000000000000000000010000000000000000000000000000000000000001000000014
:4004800000000000000000000000000000000000000000000000000000000000000000800000000000000000000000000000000000000000000000000000000000000000BC
:4004C00000000000010004000000000000000000020000000000000000000000000000000000000000000000000000000000000000000000000000000000000010000000E5
:40050000000000000000000000000000000000800000000000000000000000000000000000000000000000000000000000000000000000000000000000000000000000003B
:40054000000000000000000000000000000000000000000000000000000000000000000000000000000000000000000000000000000000000000000000000000000000007B
:400580000000000000000000000000000000000000000000000000000000000000000000000000000000000000000000000800000000000000000000000000000000000033
:4005C00000000000000000000000000000000000000000000000000000000000000000000000000000000000000000000008000000000000000000000000000010000000E3
:400600000000000000000000000000000000008000000000000000000000000000000000000000000000000000000000000000000000000000000000010000000000000039
:40064000000000000000000000000000000000000000000000000000000000000000000000000000000000000000000000000000000000000000000000000000000000007A
:40068000000000000000000000000000000000000000000000000000000000000000000000000000000000000000000000000000000000000000000000000000000000003A
:4006C00000000000000000001000000000000000000000000000000000000000000000000000000000000000000000000000000000000000000000000000000000000000EA
:400700000000000000000000000000000000008000000000000000000000000000000000000000000000000000000000000000000000000000000000000000000000000039
:400740000200000000000000000000000000000000000000000000000000000000000000000000000000000000000000000000000000000000000000000000000000000077
:400780000000000000000000000000000000000000000000000000000000000000000000000000000000000000000000000000000000000000000000000000000000000039
:4007C0000000000000000000000000000000000000000000000000000000000000000000000000000000008000000000000000000000000000000000000000000000000079
:4008000000000000000000000000000000000000000000000000000000000000000000000000000000000000000000000000000000000000000000000000000000000000B8
:400840000000000000000100000000000000000000000000000000000000000000000000000000000000000000000000000000000000000000000000000000000000000077
:400880000000000000000000000000000000000000000000000000000000000000000000000000000000000000000000000000000000000000000000000000000000000038
:4008C00000000000000000002000000008000000000000000000000000000000000000000000000000000000248000400000000002080000000000000040000100000000A1
:400900000020020500000000880400010000111100800008008000000208004000000060040000002400000000000000000000000000000000000000000000000000000007
:40094000000040000000000002004000000000000240000000000000000000000000000000000000000000000000000004041000000001050000C00004000004004000018C
:40098000008000600220401110088008400001040000000000000000000000000000000000000000000000000F000C000900000000001C003B00620000000000000008001A
:4009C00008000000000000000000C00048002000000000000000000000000000000000000000000000000000000000000000000000000000000000000000000000000000C7
:400A000000000000000000000000000000000000000000000000000000000000000000000000000000000000000000000000000000000000000000000000000000000000B6
:400A40000000000000000000000000000100000040000000000000000000000000000000000000000000000000605100001000620000540100000104880000040002000822
:400A8000008085502010000800018446840900680000001000000000081080000010800000000004000000400000000000000000000000000000000000000000000000006D
:400AC000000188000000000000000000000000000000000000000000000040000000000002000000020000000010010000000000400100000000000000001000840005003E
:400B00000001100000000171880000000009005C001000000000000010000002000040800000000000000000FF00CF003E000000000002003E0012000000000000000B00FA
:400B4000000000000000810000002000010020000000700000008000000000000000000000000000000000000400000800000100000901000000000080001000008000009C
:400B8000009090000000008020400040000000020000005800000008800800000000006084001000040001000000040000000000080100000000000088001000000000006D
:400BC0000000000000000000000000000000000000000000000000000000000000000000000000000000000000800004000000000000004000000000000000000000000031
:400C00000000000000000011000000000000000000000000000000000000000000000000000000000000000086000D008C000000000027003A00CE0004000400000000004D
:400C40000000000000000000000020000000000000000000000000000000000000000000000000000000000000000000000000000000000000000000000000000000000054
:400C80000000000000000000000000000000000000000000000000000000000000000000000000000000000000000000000000000000000000000000000000000000000034
:400CC00000000000000000000200000000000000000000000000000000000000000000000000000000000000000000000000000000000001000000000000000000000000F1
:400D000000000000000000100000000000000000000000000000000000000000000000000000000000000000000000000000000000000000000000000000000000000000A3
:400D40000000000000000000020000000000200000000000000000000000000000000000000000000000000000000000000000000000000000000010000000000000000041
:400D80000000000000000000000000000000000000000000000000000000000000000000000000000000000000000000000000000000000000000000000000000000000033
:400DC00000000000000000000000000000004000000000000000000000000000000000000000000000000000000000000000000000000000000000000000000000000000B3
:400E000000000000000000000000000000000000000000000000000000000000000000000000000000000000000000000000000000000000000000000080000000000080B2
:400E400000000022004000000000010000040002000000000000000000000000000000000000000000000000000000001020000020000020000001800040000200000000D6
:400E8000000401023000000000800000002000000000000000000000000000000000000000000000000000000000000000000000000000000000000000000000E000E0009B
:400EC000C0000000000000000000100000004000000000000000000000000000000000000000000000000000000000000000000000000000000000000000000000000000E2
:400F000000000000000000000000000000000001000000000000000000000000000000000000000000000000000000000000000000000000000000000000008000004000F0
:400F40000000400000000000000000000000000000000000000000000000000000000000000000000000000000400000000000000080000400000000000040020000000427
:400F8000000441023000000100000080002000000000008000000000008040000004000100000000000000000000000000000000200000000000000000000000E0000000D4
:400FC00000000000000000000000000000002000000000000000200000000000000000000000000000000000000000000000000000000000000000000000010000000000B0
:4010000000000000000000000000000000000000000000000000000000000000000000000000000000000000000000000000000000000000000000000000000000000000B0
:401040000000000000000000000000000000000000000000000000000000000000000000000000000000000008004000000000000000000200000000000000000000000422
:4010800000000000380000010000000000A0000000000000000000000000000000000000000000000000000000000000400000000000000000000000000000000000000017
:4010C00000000000000000000000200000002000000000000000000000000000000000000000000000000000000000000000000101000000000000000000000000000004AA
:4011000000000000390000000000000000A00000000000000000000000000000000000000000000000000000000000000000000000000000000000000000000000000000D6
:40114000000000000000000040000000000000000000000000000000000000000000000000000000000000000000000000000000000000000000000000000000000000002F
:40118000000000000000000000000000000000000000000000000000000000000000000000000000000000000000000000000000000000000000000010000000008000009F
:4011C0001800000020000000002000000100000400000000000000000000000000000000000000000000000000000000000000000000000010000000000000000000000082
:40120000000000000000000000000000000000000000000000000000000000000000000000000000000000000000000000000000000000000000000000000000E000E000EE
:40124000C00000000000000000000000000000000000000000000000000000000000000000000000000000000000000000FFFF0000000000003737000400000F0B00000024
:4012800000000000007F7F000080800000CFCF00CF3030000A0018010000000000000000000000000000000000000000000000000000000000000000000000000000000040
:4012C00000000000000000000000000000000000000000000000000000000000000000000000000000000000000000000000000000000000000000000000000000000000EE
:4013000000000000000000000000000000000000000000000000000000000000000000000000000000000000000000000000000000000000000000000000000000000000AD
:40134000000000000000000000000000000000000000000000000000000000000000000000000000000000000000000000000000000000000000000000000000000000006D
:40138000000000000000000000000000000000000000000000000000000000000000000000000000000000000000000000000000000000000000000000000000000000002D
:0200000490006A
:0400000000004004B8
:0200000490105A
:04000000BC90ACAF55
:0200000490303A
:020000008B96DD
:0200000490402A
:4000000000000000000000000000000000000000000000000000000000000000000000000000000000000000000000000000000000000000000000000000000000000000C0
:400040000000000000000000000000000000000000000000000000000000000000000000000000000000000000000000000000000000000000000000000000000000000080
:400080000000000000000000000000000000000000000000000000000000000000000000000000000000000000000000000000000000000000000000000000000000000040
:4000C0000000000000000000000000000000000000000000000000000000000000000000000000000000000000000000000000000000000000000000000000000000000000
:0200000490501A
:0C00000000012E16106900012E219BFF4C
:00000001FF